:100000000C9472000C9493000C9493000C94930045
:100010000C9493000C94F7010C941C020C94930024
:100020000C9493000C9493000C9493000C94930004
:100030000C9493000C9493000C9493000C949300F4
:100040000C9493000C9493000C9493000C949300E4
:100050000C9493000C9493000C9493000C949300D4
:100060000C9493000C9457070C9493000C949300F9
:100070000C9493000C9493000C9493000C949300B4
:100080000C9493000C9493000C9493000C949300A4
:100090000C9493000C9493000C9493000C94930094
:1000A0000C9493000C9493000C9493000C94930084
:1000B0000C9493000C9493000C9493000C94930074
:1000C0000C9493000C9493000C9493000C94930064
:1000D0000C9493000C9493000C9493000C94930054
:1000E0000C94930011241FBECFEFD1E2DEBFCDBF31
:1000F00000E00CBF12E0A0E0B2E0EEEBF8E100E0BF
:100100000BBF02C007900D92AA30B107D9F712E0D9
:10011000AAE0B2E001C01D92A434B107E1F70E9449
:100120003C090C945D0C0C94000086E69EE001975F
:10013000F1F700004098419880E388B9429AEFEFC8
:10014000F7E43197F1F700C000004298E6E6FEE0E0
:100150003197F1F700004098419888B9429AEFEF43
:10016000F7E43197F1F700C000004298E6E6FEE0C0
:100170003197F1F700004098419888B9429A8FEF83
:1001800097E40197F1F700C000004298E6E6FEE030
:100190003197F1F700004098419880E288B9429A7F
:1001A0008FEF97E40197F1F700C00000429808959F
:1001B00098B19F7098B998B1282F207F922B98B949
:1001C00040984198429AEFEFF7E43197F1F700C079
:1001D0000000429898B19F7098B998B18295807F3D
:1001E000892B88B940984198429A8FEF97E40197FC
:1001F000F1F700C000004298089586E69EE001975E
:10020000F1F7000088E20E94D80081E00E94D80047
:1002100086E00E94D8008EE00E94D80080E80E940C
:10022000D800089598B19F7098B998B1282F207F71
:10023000922B98B9409A4198429AEFEFF7E43197A0
:10024000F1F700C00000429898B19F7098B998B13A
:100250008295807F892B88B9409A4198429A8FEF86
:1002600097E40197F1F700C000004298089580E8F4
:100270000E94D8000895CF93DF93EC0188818823F2
:1002800031F021960E94120189918823D9F7DF91DC
:10029000CF910895823079F0833018F48130C9F419
:1002A00005C0833069F08430A1F40FC0862F8158D7
:1002B0000E94D8000895862F81540E94D800089586
:1002C000862F8D560E94D8000895862F8D520E9449
:1002D000D80008950F931F93CF93DF938A01E9010C
:1002E000882311F0662319F40E94370102C00E948E
:1002F0004A01C530D10571F4C80160E177E20E947E
:10030000360CCB01C09690933402809333020E9446
:10031000120103C0C430D105B9F4C80168EE73E01E
:100320000E94360CCB0170933602609335026AE06E
:1003300070E00E94360CC096909343028093420274
:100340000E94120181E001C080E0C330D10511F0AC
:100350008130B1F4C80164E670E00E94360CCB0134
:1003600070933602609335026AE070E00E94360CAA
:10037000C09690933E0280933D020E94120181E05C
:10038000C230D10511F08130B1F42AE030E0C8016B
:10039000B9010E94360CCB0170933602609335028E
:1003A000B9010E94360CC09690933B0280933A02AA
:1003B0000E94120181E0C130D10511F0813061F459
:1003C000C8016AE070E00E94360CC096909341022A
:1003D000809340020E941201C630D1051CF085E4D2
:1003E0000E941201DF91CF911F910F9108951F92EA
:1003F0000F920FB60F9211248F939F93AF93BF93D9
:1004000080912B0290912C02A0912D02B0912E028E
:100410000196A11DB11D80932B0290932C02A093F5
:100420002D02B0932E02BF91AF919F918F910F90AB
:100430000FBE0F901F9018951F920F920FB60F923C
:1004400011248F939F93AF93BF9380912702909134
:100450002802A0912902B0912A020196A11DB11D86
:100460008093270290932802A0932902B0932A0236
:10047000BF91AF919F918F910F900FBE0F901F90E2
:10048000189592B1907F8F70982B92B9089586E05D
:100490000E944102089589E00E944102089585E08A
:1004A0000E94410208958AE00E944102089584E07A
:1004B0000E944102089582E00E944102089581E075
:1004C0000E944102089588E00E944102089580E060
:1004D0000E94410208950F931F93CF93BC0180E0C7
:1004E00090E00E94450B28E431EE42E850E40E947F
:1004F000AC0A0E94190BDC01CB01A0E0B0E0109225
:100500002702109228021092290210922A021092B9
:100510002B0210922C0210922D0210922E02F1E06A
:10052000C0E0409127025091280260912902709109
:100530002A0200912B0210912C0220912D02309161
:100540002E02EF2F481759076A077B0708F4EC2F94
:10055000EE2349F44F2F081719072A073B0708F421
:100560004C2F4423F1F20E946702CF911F910F910B
:100570000895BC0180E090E00E94450B25EE30ED2F
:100580004AEA50E40E94AC0A0E94190B462F572FEA
:10059000682F792F109227021092280210922902B8
:1005A00010922A028091270290912802A09129029C
:1005B000B0912A02481759076A077B0798F70E94EB
:1005C00067020895CF93DF93EC010E944702CE01AA
:1005D0000E94B902DF91CF910895CF93DF93EC0190
:1005E0000E944B02CE010E94B902DF91CF91089583
:1005F000CF93DF93EC010E944F02CE010E946B0269
:10060000DF91CF910895CF93DF93EC010E945302C5
:10061000CE010E946B02DF91CF910895CF93DF93BB
:10062000EC010E945702CE01880F991F0E946B02B5
:10063000DF91CF910895CF93DF93EC010E945B028D
:10064000CE01880F991F0E946B02DF91CF91089510
:10065000CF93DF93EC010E945F02CE01880F991FB8
:100660000E946B02DF91CF910895CF93DF93EC014D
:100670000E946302CE01880F991F0E946B02DF91D6
:10068000CF9108958093280160932A01089582B143
:100690008F73806882B9089582B18F73806482B944
:1006A000089582B18F7382B90895E1ECF0E0108271
:1006B0001092C00086E08093C2008FE58093C40052
:1006C0001092C50088E9808308958FE081B912B83F
:1006D00088E180930A0180930B0188E08DB98EB97F
:1006E000089510BA11BA10920701109208010895E6
:1006F0003B9A4398089586B1886088B9089586B179
:10070000877F88B90895CF93DF93EC0118161906F7
:10071000C4F40E947B038FEF9FE3A2E081509040DE
:10072000A040E1F700C000000E947F038FEF9FEF21
:10073000A8E081509040A040E1F700C00000219760
:1007400041F7DF91CF91089587B1876F87B988B15D
:10075000807888B908956C98749A08956D98759A00
:100760000895F894EAE6F0E0808182608083EC9A54
:1007700078940895F894EAE6F0E0808188608083B8
:10078000ED9A78940895E1E2F1E010828FEF809382
:10079000250191E090932401109229018093280172
:1007A00010922B0180932A0110922D0180932C012D
:1007B00089EA809320018BE080830895259A2D9A01
:1007C0000895269A2E9A0895E1E8F0E010828CEFC1
:1007D0008093850081E08093840093E0909389006A
:1007E0008FEF8093880090938B0080938A00909382
:1007F0008D0080938C0090938700809386008BEA15
:1008000080938000109282008CE080830895EAE754
:10081000F0E0108210927B0080E280937C0080E800
:1008200080BF86E880830895F894EAE6F0E080814E
:1008300080628083EE9A789408956E98769A0895EF
:100840000E94A4030E9471030E9465030E94AB03EF
:100850000E94AE030E941D040E9478030E94DE03E2
:100860000E94E1030895F8940E9420040E94070466
:100870000E94C3030E94B1030E94BA030E94550361
:100880000E9414040E94E403789408951092890051
:10089000682F70E080E090E00E94450B2BE734E188
:1008A0004EEE5FE30E94AC0A20E030E04CE052E400
:1008B0000E94480A0E94190B6093880008951092C4
:1008C0008B00682F70E080E090E00E94450B2BE7E2
:1008D00034E14EEE5FE30E94AC0A20E030E04CE0F1
:1008E00052E40E94480A0E94190B60938A000895FE
:1008F00083E0809389008FEF80938800089583E0E0
:1009000080938B008FEF80938A000895CF93DF93BD
:10091000EC010E9478048FEF9FE7A6E181509040A0
:10092000A040E1F700C00000C130D10539F48AE5EC
:1009300090E0909326028093250206C088E790E01D
:1009400090932602809325020E947F04DF91CF912D
:100950000895CF93DF93EC010E9478048FEF9FE717
:10096000A6E181509040A040E1F700C00000C130F6
:10097000D10539F48AE590E0909326028093250210
:1009800006C088E790E09093260280932502C091EC
:100990002502D09126028C2F0E945F048FEF9FEFDB
:1009A000A8E081509040A040E1F700C000002597EA
:1009B00092F70E947F04DF91CF910895CF93C7E310
:1009C0008C2F0E945F0489E999E5A1E08150904055
:1009D000A040E1F70000CB5FC33791F7CF910895B6
:1009E000CF93CEE68C2F0E945F0489E999E5A1E0C0
:1009F00081509040A040E1F70000C550C23391F70C
:100A0000CF910895CF93DF93C82FD0E08091230238
:100A100090912402C817D907DCF489E999E9A3E089
:100A200081509040A040E1F7000080912302909116
:100A30002402059790932402809323020E94460487
:100A40008091230290912402C817D90734F31DC066
:100A50008C179D07D4F489E999E9A3E0815090406F
:100A6000A040E1F7000080912302909124020596B6
:100A700090932402809323020E94460480912302D3
:100A8000909124028C179D0734F3DF91CF91089544
:100A90000F931F93CF93DF93C82FD0E0809107026D
:100AA00090910802C817D907FCF403E212E089E923
:100AB00099E9A3E081509040A040E1F700008091C7
:100AC000070290910802059790930802809307020D
:100AD000D8018C910E9446048091070290910802EF
:100AE000C817D90724F321C08C179D07F4F403E23B
:100AF00012E089E999E9A3E081509040A040E1F734
:100B000000008091070290910802059690930802D8
:100B100080930702D8018C910E94460480910702BD
:100B2000909108028C179D0724F3DF91CF911F91BC
:100B30000F910895CF93DF93C82FD0E080912102C9
:100B400090912202C817D907DCF489E999E9A3E05A
:100B500081509040A040E1F70000809121029091E7
:100B60002202059790932202809321020E9446045C
:100B70008091210290912202C817D90734F31DC039
:100B80008C179D07D4F489E999E9A3E0815090403E
:100B9000A040E1F700008091210290912202059689
:100BA00090932202809321020E94460480912102A8
:100BB000909122028C179D0734F3DF91CF91089515
:100BC000883018F098E090937B0087708062809363
:100BD0007C00EAE7F0E0808180648083808184FF8C
:100BE000FDCF80917900EAE7F0E0908190619083F9
:100BF00010927B0008950E94E005682F70E080E06D
:100C000090E00E94450B2BED34EA42EA5AE30E9441
:100C1000D30B2AE037ED43EA5BE30E94480A9B01CD
:100C2000AC0160E070E080E89FE30E94AC0A2DE335
:100C30003AE047ED5EE30E94470A20E030E040E200
:100C400051E40E94D30B0E94140BDC01CB0121E084
:100C50008633920734F46AE070E00E944A0CCB01BC
:100C6000089582E390E008958AE090E00E94FB05F9
:100C700021E030E08730910514F020E030E0822F51
:100C8000932F0895CF93DF93D82FC62F842F0E94E0
:100C9000E005482F809338028D2F6C2F50E023E021
:100CA00030E00E946A01DF91CF91089583E00E94B5
:100CB000E00580931F0282E00E94E00580931E02FF
:100CC00081E00E94E00580931D02089583E00E9468
:100CD000E00580931F0282E00E94E00580931E02DF
:100CE00081E00E94E00580931D021092200281E0C5
:100CF00061E043E00E94420681E065E042E00E943C
:100D0000420681E069E041E00E94420680911F02B4
:100D10008832C0F480911E02883228F580911D022D
:100D20008832A0F4209118023091190280910202B9
:100D3000909103022817390749F481E0809320023B
:100D40000E94670280911E02883268F4809120021E
:100D5000882349F481E0809320020E94470282EDBB
:100D60006CED0E94420380911F02893268F08091ED
:100D70002002882349F481E0809320020E944702E8
:100D800082ED64EB0E94420380911D02893268F07B
:100D900080912002882349F481E0809320020E9400
:100DA000470284EB62ED0E94420380911E02893269
:100DB00070F080911F02893250F080911D028932BB
:100DC00030F00E94470280E060E00E944203809180
:100DD0001F02883270F480911E02883250F4809194
:100DE0001D02883230F481E090E090930F028093EE
:100DF0000E0280911F02893240F480911E028932D6
:100E000020F480911D02893288F080910E02909129
:100E10000F028130910551F410920F0210920E02D0
:100E200081E090E090930D0280930C0280910E027D
:100E300090910F020097C1F480910C0290910D02E5
:100E40008130910589F480911802909119020196E0
:100E5000909319028093180281E090E00E9483032E
:100E600010920D0210920C02089580913C0283337F
:100E700079F0843328F4813341F0823391F414C043
:100E8000843349F0853369F409C081E090E0089526
:100E900083E090E0089584E090E0089585E090E09C
:100EA000089584E090E0089582E090E008951F9214
:100EB0000F920FB60F920BB60F9211242F933F9300
:100EC0004F935F936F937F938F939F93AF93BF9352
:100ED000EF93FF938091C60080933C0281E090E005
:100EE00090931702809316020E9483030E94350795
:100EF0009093030280930202FF91EF91BF91AF9113
:100F00009F918F917F916F915F914F913F912F9121
:100F10000F900BBE0F900FBE0F901F9018950F9360
:100F20001F93CF93DF93EC018091120290911302F3
:100F30008C179D0724F0C817D907E4F035C002E1EB
:100F400012E089E999E5A1E081509040A040E1F7E5
:100F50000000D8018C910E94460480911202909169
:100F60001302019690931302809312028C179D072F
:100F700044F31AC002E112E089E999E5A1E0815049
:100F80009040A040E1F70000D8018C910E944604F7
:100F90008091120290911302019790931302809313
:100FA0001202C817D90744F3DF91CF911F910F9117
:100FB0000895CF93DF93EC010E947F0480910A0291
:100FC00090910B028C179D070CF1C817D907DCF51F
:100FD0008FEF9FE3A2E081509040A040E1F700C076
:100FE000000080910A0290910B029C012150304038
:100FF00030930B0220930A020E94460480910A0259
:1010000090910B02C817D9071CF31DC08FEF9FE307
:10101000A2E081509040A040E1F700C00000809124
:101020000A0290910B029C012F5F3F4F30930B02FD
:1010300020930A020E94460480910A0290910B02BA
:101040008C179D071CF30E947804DF91CF910895BF
:1010500080911B0290911C028130910541F484E043
:1010600090E00E9483038EE690E00E94D907809171
:101070001B0290911C028230910541F488E090E0BF
:101080000E94830380EA90E00E94D9078FEF9FE7D8
:10109000A6E181509040A040E1F700C00000089513
:1010A0000F931F93CF93DF938EE190E00E94D907B7
:1010B0008DE20E945F048FEF9FE7A6E18150904090
:1010C000A040E1F700C000008DE00E94E005482F3D
:1010D00081E061E050E023E030E00E946A01C0E07E
:1010E000D0E08AE090E00E94FB058A30910594F1FF
:1010F00089E090E00E94FB058A3091055CF189E06F
:101100000E94E005482F82E061E050E023E030E0FB
:101110000E946A018AE00E94E005482F82E066E0B2
:1011200050E023E030E00E946A010E94470386E617
:1011300096EEA0E081509040A040E1F70E9451035C
:101140008FEF9FE3A2E081509040A040E1F700C004
:10115000000021968AE090E00E94FB058A3091050C
:1011600054F089E090E00E94FB058A3091050CF074
:10117000B8CF8E0101C08E018AE00E94E005482FA1
:1011800082E061E050E023E030E00E946A0189E003
:101190000E94E005482F82E066E050E023E030E066
:1011A0000E946A0184E090E00E9483038EE60E9420
:1011B0005F048FEF9FEFACE281509040A040E1F7D9
:1011C00000C0000010161106B4F40E944C0386E61D
:1011D00096EEA0E081509040A040E1F70E945103BC
:1011E0008FEF9FE3A2E081509040A040E1F700C064
:1011F0000000219751F781E062E045E050E021E0F6
:1012000030E00E946A018FEF9FEFA9E58150904086
:10121000A040E1F700C000000E94280881E062E0E1
:1012200046E050E021E030E00E946A018FEF9FEF3E
:10123000ACE281509040A040E1F700C000008DE298
:101240000E945F048FEF9FE7A6E181509040A0408D
:10125000E1F700C0000081E062E046E350E021E0F9
:1012600030E00E946A018EE190E00E94D907DF9190
:10127000CF911F910F9108950E9433040E94950011
:101280000E94FD0081E090E00E9483038EE190E0E7
:101290000E94D9078DE20E945F048FEF9FEFACE2BE
:1012A00081509040A040E1F700C000000E947F0400
:1012B00080910202909103021816190684F0409161
:1012C0003C0282E061E050E024E030E00E946A01EC
:1012D00080910202909103021816190684F720915A
:1012E000180230911902809102029091030228178E
:1012F00039076CF40E946606209118023091190299
:101300008091020290910302281739079CF31092F2
:1013100017021092160228173907F1F40E9467028B
:1013200084E190E00E94E2028FE590E00E940303D6
:101330008FEF9FEFACE281509040A040E1F700C0FA
:1013400000008FE090E00E94E20282E090E00E94C4
:10135000830382E58093C600EE24FF246894E1F8BD
:10136000C6ECD0E012E5CC24DD24C39483E00E94D7
:10137000E00580931F0282E00E94E00580931E0238
:1013800081E00E94E00580931D0281E061E043E07E
:101390000E94420681E065E042E00E94420681E050
:1013A00069E041E00E9442060E94660680911F02A9
:1013B0008832B0F480911E02883290F480911D0230
:1013C000883270F40E94670283E090E00E948303F9
:1013D00088E290E00E94ED0284EB90E00E9403031B
:1013E0008FEF9FEFA8E081509040A040E1F700C050
:1013F00000008091160290911702009709F4B6CF71
:1014000080913C028435C9F0843771F50E946702EF
:101410008FEF9FEFA9E581509040A040E1F700C019
:10142000000084E090E00E948303D0921C02C092EE
:101430001B020E945008188325C00E9467028FEF8C
:101440009FEFA9E581509040A040E1F700C0000067
:1014500088E090E00E948303F0921C02E0921B025D
:101460000E94500818830EC082E061E045E550E01C
:1014700024E030E00E946A0110921C0210921B02CC
:101480000E94670210921702109216026FCF5058F6
:10149000BB27AA270ED04DC13ED130F043D120F05A
:1014A00031F49F3F11F41EF433C10EF4E095E7FBD5
:1014B00029C1E92F4FD180F3BA1762077307840758
:1014C000950718F071F49EF567C10EF4E0950B2EA8
:1014D000BA2FA02D0B01B90190010C01CA01A00186
:1014E0001124FF27591B99F0593F50F4503E68F1E1
:1014F0001A16F040A22F232F342F4427585FF3CF22
:10150000469537952795A795F0405395C9F77EF4F2
:101510001F16BA0B620B730B840BBAF09150A1F03B
:10152000FF0FBB1F661F771F881FC2F70EC0BA0FC1
:10153000621F731F841F48F4879577956795B79549
:10154000F7959E3F08F0B3CF9395880F08F0992741
:10155000EE0F9795879508950CD0EBC0E3D040F03F
:10156000DAD030F021F45F3F19F0CCC0511115C131
:10157000CFC0F0D098F39923C9F35523B1F3951B4D
:10158000550BBB27AA2762177307840738F09F5FA4
:101590005F4F220F331F441FAA1FA9F333D00E2E13
:1015A0003AF0E0E830D091505040E695001CCAF780
:1015B00029D0FE2F27D0660F771F881FBB1F261745
:1015C00037074807AB07B0E809F0BB0B802DBF0118
:1015D000FF2793585F4F2AF09E3F510568F092C055
:1015E000DCC05F3FECF3983EDCF38695779567951A
:1015F000B795F7959F5FC9F7880F911D96958795C9
:1016000097F90895E1E0660F771F881FBB1F6217E7
:1016100073078407BA0720F0621B730B840BBA0BA5
:10162000EE1F88F7E095089504D06894B111B5C015
:10163000089598D088F09F5790F0B92F9927B75107
:10164000A0F0D1F0660F771F881F991F1AF0BA9586
:10165000C9F712C0B13081F09FD0B1E008959CC0AD
:10166000672F782F8827B85F39F0B93FCCF386957C
:1016700077956795B395D9F73EF4909580957095D9
:1016800061957F4F8F4F9F4F0895E89409C097FB56
:101690003EF490958095709561957F4F8F4F9F4F49
:1016A0009923A9F0F92F96E9BB279395F69587958D
:1016B00077956795B795F111F8CFFAF4BB0F11F450
:1016C00060FF1BC06F5F7F4F8F4F9F4F16C08823F7
:1016D00011F096E911C0772321F09EE8872F762F2D
:1016E00005C0662371F096E8862F70E060E02AF06E
:1016F0009A95660F771F881FDAF7880F969587955A
:1017000097F9089597F99F6780E870E060E0089581
:101710009FEF80EC089500240A9416161706180609
:101720000906089500240A941216130614060506E5
:101730000895092E0394000C11F4882352F0BB0F76
:1017400040F4BF2B11F460FF04C06F5F7F4F8F4FD9
:101750009F4F089557FD9058440F551F59F05F3F14
:1017600071F04795880F97FB991F61F09F3F79F0C3
:1017700087950895121613061406551FF2CF469545
:10178000F1DF08C0161617061806991FF1CF8695C7
:101790007105610508940895E894BB2766277727AB
:1017A000CB0197F908950BD0C4CFB5DF28F0BADF8D
:1017B00018F0952309F0A6CFABCF1124EECFCADFE6
:1017C000A0F3959FD1F3950F50E0551F629FF00154
:1017D000729FBB27F00DB11D639FAA27F00DB11DAD
:1017E000AA1F649F6627B00DA11D661F829F222736
:1017F000B00DA11D621F739FB00DA11D621F839FBD
:10180000A00D611D221F749F3327A00D611D231F92
:10181000849F600D211D822F762F6A2F11249F57E0
:1018200050408AF0E1F088234AF0EE0FFF1FBB1F03
:10183000661F771F881F91505040A9F79E3F5105A2
:1018400070F060CFAACF5F3FECF3983EDCF3869553
:1018500077956795B795F795E7959F5FC1F7FE2B4D
:10186000880F911D9695879597F90895AA1BBB1B24
:1018700051E107C0AA1FBB1FA617B70710F0A61B90
:10188000B70B881F991F5A95A9F780959095BC01B1
:10189000CD01089597FB092E07260AD077FD04D0C5
:1018A000E5DF06D000201AF4709561957F4F08950A
:0E18B000F6F7909581959F4F0895F894FFCF1D
:0A18BE000100FFFF0FC8C83700004B
:00000001FF
